:060000000200690203E8A2
:03000B00020340AD
:030013000203EBFA
:01001B0032B2
:0100230032AA
:01002B0032A2
:01003300329A
:01003B003292
:01004300328A
:01004B003282
:01005300327A
:01005B003272
:030063000203EEA7
:2000C200752200752300752400752500752600752700752800752900752A00752B00752C6A
:2000E20000752D00752E00752F007530007531007532007533007534007535007536007508
:200102003700753800753900753A00753B00753C00753D00753E00753F00754000754100B7
:20012200754200754300754400754500754600754700754800754900754A00754B00754CA9
:2001420000754D00754E00754F007550007551007552007553007554007555007556007567
:200162005700755800755900755A00755B00755C00755D00755E00755F00756000756100F7
:20018200756200756300756400756500756600756700756900756B00756C00756D00756EE0
:1501A20064E4F56FF570F571F572F573C200C201C20202006651
:0300660002022370
:2001B700007F0B7EBEEE14FDFE70FAEF14FDFF70F422AE82AF837C007D00C007C006C005C9
:2001D700C0041201B7D004D005D006D0070CBC00010DC3EE9CEF9D50E122538E7F5389F0F6
:2001F700758AFE758CF0C28DC2A8C2AAC288C28AD2AFD2A9D28C22AE8E4306048E8E75D6D3
:20021700CD75D7D4AEAF4306048EAF221201F112020E757301758E1475C8FF75C80090039F
:20023700E81201C975C8FF758E04D2B0C201756B00756C00C202756A00E56A2422F87600F4
:20025700056A74BA256A50F120B20B20B308757305758E14801420B208757301758E148070
:200277000920B306757303758E1430B20830B305758E04D2B020CC0B20CD08757305758E4C
:2002970014801420CC08757301758E14800920CD06757303758E14C374FA956F74FF957080
:2002B70050080571E4B571020572C374C89571E49572500DD202E4F56FF570F571F57280BB
:2002D70002C20230022AD2A8D2AA756A0075C8009001F41201C975C8FF9001F41201C905D0
:2002F7006A74FA256A50E6D2027587020000000020B209E4F56FF570F571F57220B309E463
:20031700F56FF570F571F57230CC0630CD03758E04E5B0FF25E0F5C8E5C825E0F5C8056FEE
:20033700E4B56F02057002025FC021C0E0C0F0C082C083C007C006C005C004C003C002C0B3
:2003570001C000C0D075D000758AFE758CF0E56904F56924E7505D20011EE56B24BA500BD2
:20037700D201756C009003E81201C9E56B2422F8A6B0E56BFF04F56B300136E56C2422F9CD
:20039700E725E0F5C8E5C825E0F5C8E56C24BA501A756A00E56A2422F87600056A74BA25F1
:2003B7006A50F1756C00756B00C201E56CFF04F56C756900D0D0D000D001D002D003D004AA
:2003D700D005D006D007D083D082D0F0D0E0D02132C20232C20232C0E0C0D075D00875D698
:1A03F700CD75D7D4E56D04F56DC3E573956D5005756D00B2B0D0D0D0E0320F
:06009800E478FFF6D8FD3C
:200076007900E94400601B7A00900415780175A000E493F2A308B8000205A0D9F4DAF27517
:02009600A0FFC9
:20009E007800E84400600A790175A000E4F309D8FC7800E84400600C7900900001E4F0A360
:0400BE00D8FCD9FA97
:0D006900758173120411E5826003020066C8
:0404110075820022CE
:00000001FF
